:1000000000308A005A280000FF00030E8301A1007F
:100010000A08A0008A010408A2007708A300780853
:10002000A4007908A5007A08A600831383128C30F7
:100030008400801E1D288C1A2E2822088400230884
:10004000F7002408F8002508F9002608FA0020081F
:100050008A00210E8300FF0E7F0E09008A110A120A
:1000600031288C1E31281A08A80028086C3A031978
:100070003D281E3A03194A2856288714A710270836
:100080008316870083120716271227088316870016
:10009000831256288714A710270883168700831217
:1000A0000712271227088316870083128C128A11E1
:1000B0000A121D2803081F39830081308316990016
:1000C000A6309800903083129800FF30A700831666
:1000D0001F149F141F159F1107309C0083138C164B
:0A00E000C03083128B047328630004
:02400E00723FFF
:00000001FF
;PIC16F877A
;CRC=E87D  CREATED="17-Nov-17 08:42"
