:1000000000308A002F280000FF00030E8301A100AA
:100010000A08A0008A010408A2007708A300780853
:10002000A4007908A5007A08A600831383128B1D0B
:100030001B280B182C28220884002308F70024080A
:10004000F8002508F9002608FA0020088A00210E89
:100050008300FF0E7F0E09008A110A122F28030861
:100060001F398300813083169900A63098009030A4
:1000700083129800FF30A80083161F149F141F15C9
:100080009F1107309C008313003086001F149F14BB
:100090001F159F11831228142808831687008312C6
:1000A000071C572853300C1E532899005B284430F6
:0A00B0000C1E582899004B2863002D
:02400E00723FFF
:00000001FF
;PIC16F877A
;CRC=69DB  CREATED="20-Nov-17 16:12"
