:1000000000308A006B280000FF00030E8301A1006E
:100010000A08A0008A010408A2007708A300780853
:10002000A4007908A5007A08A600831383128B1D0B
:100030001B280B1832288C308400801E21288C1A33
:100040003528220884002308F7002408F800250832
:10005000F9002608FA0020088A00210E8300FF0E0E
:100060007F0E09008A110A126B288A110A12382899
:100070008C1E38281A08A9002908723A0319472843
:100080001E3A031954281F3A031961286728871458
:10009000A81028088316870083120716281228083C
:1000A00083168700831267288714A81028088316F0
:1000B00087008312071228122808831687008312EC
:1000C00067288710A81028088316870083128C12CF
:1000D0008A110A12212803081F39830081308316F0
:1000E0009900A6309800903083129800FF30A80045
:1000F00083161F149F141F159F1107309C00831334
:0A0100008C16C03083128B046300DC
:02400E00723FFF
:00000001FF
;PIC16F877A
;CRC=7414  CREATED="21-Nov-17 21:35"
